{
  "contractName": "Fund",
  "abi": [
    {
      "inputs": [
        {
          "internalType": "uint256",
          "name": "",
          "type": "uint256"
        }
      ],
      "name": "funders",
      "outputs": [
        {
          "internalType": "address",
          "name": "",
          "type": "address"
        }
      ],
      "stateMutability": "view",
      "type": "function",
      "constant": true
    },
    {
      "inputs": [],
      "name": "num_of_funder",
      "outputs": [
        {
          "internalType": "uint256",
          "name": "",
          "type": "uint256"
        }
      ],
      "stateMutability": "view",
      "type": "function",
      "constant": true
    },
    {
      "stateMutability": "payable",
      "type": "receive",
      "payable": true
    },
    {
      "inputs": [],
      "name": "transfer",
      "outputs": [],
      "stateMutability": "payable",
      "type": "function",
      "payable": true
    },
    {
      "inputs": [
        {
          "internalType": "uint256",
          "name": "_amt",
          "type": "uint256"
        }
      ],
      "name": "withdraw",
      "outputs": [],
      "stateMutability": "nonpayable",
      "type": "function"
    }
  ],
  "bytecode": "0x608060405234801561001057600080fd5b506103a5806100206000396000f3fe6080604052600436106100435760003560e01c8063025a446a1461004f5780632e1a7d4d1461007a5780638a4068dd146100a3578063dc0d3dff146100ad5761004a565b3661004a57005b600080fd5b34801561005b57600080fd5b506100646100ea565b60405161007191906102c7565b60405180910390f35b34801561008657600080fd5b506100a1600480360381019061009c9190610222565b6100f0565b005b6100ab610185565b005b3480156100b957600080fd5b506100d460048036038101906100cf9190610222565b6101da565b6040516100e1919061028c565b60405180910390f35b60005481565b671bc16d674ec8000081111561013b576040517f08c379a0000000000000000000000000000000000000000000000000000000008152600401610132906102a7565b60405180910390fd5b3373ffffffffffffffffffffffffffffffffffffffff166108fc829081150290604051600060405180830381858888f19350505050158015610181573d6000803e3d6000fd5b5050565b33600160008054815260200190815260200160002060006101000a81548173ffffffffffffffffffffffffffffffffffffffff021916908373ffffffffffffffffffffffffffffffffffffffff160217905550565b60016020528060005260406000206000915054906101000a900473ffffffffffffffffffffffffffffffffffffffff1681565b60008135905061021c81610358565b92915050565b60006020828403121561023457600080fd5b60006102428482850161020d565b91505092915050565b610254816102f3565b82525050565b6000610267601e836102e2565b91506102728261032f565b602082019050919050565b61028681610325565b82525050565b60006020820190506102a1600083018461024b565b92915050565b600060208201905081810360008301526102c08161025a565b9050919050565b60006020820190506102dc600083018461027d565b92915050565b600082825260208201905092915050565b60006102fe82610305565b9050919050565b600073ffffffffffffffffffffffffffffffffffffffff82169050919050565b6000819050919050565b7f43616e6e6f74207769746864726177206d6f7265207468616e20326574680000600082015250565b61036181610325565b811461036c57600080fd5b5056fea2646970667358221220eeac86fe427742a3d8d924b21f8f6bba1609d4525a45105434a3e6e86919db6464736f6c63430008020033",
  "immutableReferences": {},
  "source": "// SPDX-License-Identifier: MIT\r\npragma solidity >=0.4.22 <0.9.0;\r\n\r\ncontract Fund {\r\n    uint public num_of_funder;\r\n    mapping(uint => address) public funders;\r\n\r\n    receive() external payable {}\r\n\r\n    function transfer() external payable {\r\n        funders[num_of_funder] = msg.sender;\r\n    }\r\n\r\n    function withdraw(uint _amt) external {\r\n        require(_amt <= 2000000000000000000, \"Cannot withdraw more than 2eth\");\r\n        payable(msg.sender).transfer(_amt);\r\n    }\r\n}\r\n",
  "sourcePath": "D:\\Coding\\Blockchain\\Fund\\contracts\\Fund.sol",
  "compiler": {
    "name": "solc",
    "version": "0.8.2+commit.661d1103.Emscripten.clang"
  },
  "schemaVersion": "3.4.13",
  "updatedAt": "2023-04-04T20:06:23.342Z",
  "networkType": "ethereum",
  "devdoc": {
    "kind": "dev",
    "methods": {},
    "version": 1
  },
  "userdoc": {
    "kind": "user",
    "methods": {},
    "version": 1
  }
}